{
  "contractName": "smartNFT_SC",
  "abi": [
    {
      "inputs": [],
      "stateMutability": "nonpayable",
      "type": "constructor"
    },
    {
      "anonymous": false,
      "inputs": [
        {
          "indexed": true,
          "internalType": "address",
          "name": "_owner",
          "type": "address"
        },
        {
          "indexed": true,
          "internalType": "address",
          "name": "_approved",
          "type": "address"
        },
        {
          "indexed": true,
          "internalType": "uint256",
          "name": "_tokenId",
          "type": "uint256"
        }
      ],
      "name": "Approval",
      "type": "event"
    },
    {
      "anonymous": false,
      "inputs": [
        {
          "indexed": true,
          "internalType": "address",
          "name": "_owner",
          "type": "address"
        },
        {
          "indexed": true,
          "internalType": "address",
          "name": "_operator",
          "type": "address"
        },
        {
          "indexed": false,
          "internalType": "bool",
          "name": "_approved",
          "type": "bool"
        }
      ],
      "name": "ApprovalForAll",
      "type": "event"
    },
    {
      "anonymous": false,
      "inputs": [
        {
          "indexed": true,
          "internalType": "uint256",
          "name": "tokenID",
          "type": "uint256"
        }
      ],
      "name": "OwnerEngaged",
      "type": "event"
    },
    {
      "anonymous": false,
      "inputs": [
        {
          "indexed": true,
          "internalType": "uint256",
          "name": "tokenID",
          "type": "uint256"
        }
      ],
      "name": "TimeoutAlarm",
      "type": "event"
    },
    {
      "anonymous": false,
      "inputs": [
        {
          "indexed": true,
          "internalType": "address",
          "name": "_from",
          "type": "address"
        },
        {
          "indexed": true,
          "internalType": "address",
          "name": "_to",
          "type": "address"
        },
        {
          "indexed": true,
          "internalType": "uint256",
          "name": "_tokenId",
          "type": "uint256"
        }
      ],
      "name": "Transfer",
      "type": "event"
    },
    {
      "anonymous": false,
      "inputs": [
        {
          "indexed": true,
          "internalType": "uint256",
          "name": "tokenID",
          "type": "uint256"
        },
        {
          "indexed": true,
          "internalType": "address",
          "name": "_addressUser",
          "type": "address"
        }
      ],
      "name": "UserAssigned",
      "type": "event"
    },
    {
      "anonymous": false,
      "inputs": [
        {
          "indexed": true,
          "internalType": "uint256",
          "name": "tokenID",
          "type": "uint256"
        }
      ],
      "name": "UserEngaged",
      "type": "event"
    },
    {
      "inputs": [
        {
          "internalType": "address",
          "name": "_addressSD",
          "type": "address"
        },
        {
          "internalType": "address",
          "name": "_addressOwner",
          "type": "address"
        }
      ],
      "name": "createToken",
      "outputs": [
        {
          "internalType": "uint256",
          "name": "",
          "type": "uint256"
        }
      ],
      "stateMutability": "nonpayable",
      "type": "function"
    },
    {
      "inputs": [
        {
          "internalType": "uint256",
          "name": "_tokenId",
          "type": "uint256"
        },
        {
          "internalType": "address",
          "name": "_addressUser",
          "type": "address"
        }
      ],
      "name": "setUser",
      "outputs": [],
      "stateMutability": "nonpayable",
      "type": "function"
    },
    {
      "inputs": [
        {
          "internalType": "uint256",
          "name": "_tokenId",
          "type": "uint256"
        },
        {
          "internalType": "uint256",
          "name": "_dataEngagement",
          "type": "uint256"
        },
        {
          "internalType": "uint256",
          "name": "_hashK_O",
          "type": "uint256"
        }
      ],
      "name": "startOwnerEngagement",
      "outputs": [],
      "stateMutability": "nonpayable",
      "type": "function"
    },
    {
      "inputs": [
        {
          "internalType": "uint256",
          "name": "_hashK_D",
          "type": "uint256"
        }
      ],
      "name": "ownerEngagement",
      "outputs": [],
      "stateMutability": "nonpayable",
      "type": "function"
    },
    {
      "inputs": [
        {
          "internalType": "uint256",
          "name": "_tokenId",
          "type": "uint256"
        },
        {
          "internalType": "uint256",
          "name": "_dataEngagement",
          "type": "uint256"
        },
        {
          "internalType": "uint256",
          "name": "_hashK_U",
          "type": "uint256"
        }
      ],
      "name": "startUserEngagement",
      "outputs": [],
      "stateMutability": "nonpayable",
      "type": "function"
    },
    {
      "inputs": [
        {
          "internalType": "uint256",
          "name": "_hashK_D",
          "type": "uint256"
        }
      ],
      "name": "userEngagement",
      "outputs": [],
      "stateMutability": "nonpayable",
      "type": "function"
    },
    {
      "inputs": [
        {
          "internalType": "address",
          "name": "_addressSD",
          "type": "address"
        }
      ],
      "name": "tokenFromBCA",
      "outputs": [
        {
          "internalType": "uint256",
          "name": "",
          "type": "uint256"
        }
      ],
      "stateMutability": "view",
      "type": "function"
    },
    {
      "inputs": [
        {
          "internalType": "address",
          "name": "_addressSD",
          "type": "address"
        }
      ],
      "name": "ownerOfFromBCA",
      "outputs": [
        {
          "internalType": "address",
          "name": "",
          "type": "address"
        }
      ],
      "stateMutability": "view",
      "type": "function"
    },
    {
      "inputs": [
        {
          "internalType": "uint256",
          "name": "_tokenId",
          "type": "uint256"
        }
      ],
      "name": "userOf",
      "outputs": [
        {
          "internalType": "address",
          "name": "",
          "type": "address"
        }
      ],
      "stateMutability": "view",
      "type": "function"
    },
    {
      "inputs": [
        {
          "internalType": "address",
          "name": "_addressSD",
          "type": "address"
        }
      ],
      "name": "userOfFromBCA",
      "outputs": [
        {
          "internalType": "address",
          "name": "",
          "type": "address"
        }
      ],
      "stateMutability": "view",
      "type": "function"
    },
    {
      "inputs": [
        {
          "internalType": "address",
          "name": "_addressUser",
          "type": "address"
        }
      ],
      "name": "userBalanceOf",
      "outputs": [
        {
          "internalType": "uint256",
          "name": "",
          "type": "uint256"
        }
      ],
      "stateMutability": "view",
      "type": "function"
    },
    {
      "inputs": [
        {
          "internalType": "address",
          "name": "_addressUser",
          "type": "address"
        },
        {
          "internalType": "address",
          "name": "_addressOwner",
          "type": "address"
        }
      ],
      "name": "userBalanceOfAnOwner",
      "outputs": [
        {
          "internalType": "uint256",
          "name": "",
          "type": "uint256"
        }
      ],
      "stateMutability": "view",
      "type": "function"
    },
    {
      "inputs": [
        {
          "internalType": "uint256",
          "name": "_tokenId",
          "type": "uint256"
        }
      ],
      "name": "getInfoToken",
      "outputs": [
        {
          "internalType": "address",
          "name": "_BCA_OWNER",
          "type": "address"
        },
        {
          "internalType": "address",
          "name": "_BCA_USER",
          "type": "address"
        },
        {
          "internalType": "address",
          "name": "_BCA_SD",
          "type": "address"
        },
        {
          "internalType": "uint8",
          "name": "_state",
          "type": "uint8"
        }
      ],
      "stateMutability": "view",
      "type": "function"
    },
    {
      "inputs": [
        {
          "internalType": "address",
          "name": "_addressSD",
          "type": "address"
        }
      ],
      "name": "getInfoTokenFromBCA",
      "outputs": [
        {
          "internalType": "address",
          "name": "_BCA_OWNER",
          "type": "address"
        },
        {
          "internalType": "address",
          "name": "_BCA_USER",
          "type": "address"
        },
        {
          "internalType": "uint256",
          "name": "_tokenId",
          "type": "uint256"
        },
        {
          "internalType": "uint8",
          "name": "_state",
          "type": "uint8"
        }
      ],
      "stateMutability": "view",
      "type": "function"
    },
    {
      "inputs": [
        {
          "internalType": "address",
          "name": "_owner",
          "type": "address"
        }
      ],
      "name": "balanceOf",
      "outputs": [
        {
          "internalType": "uint256",
          "name": "",
          "type": "uint256"
        }
      ],
      "stateMutability": "view",
      "type": "function"
    },
    {
      "inputs": [
        {
          "internalType": "uint256",
          "name": "_tokenId",
          "type": "uint256"
        }
      ],
      "name": "ownerOf",
      "outputs": [
        {
          "internalType": "address",
          "name": "",
          "type": "address"
        }
      ],
      "stateMutability": "view",
      "type": "function"
    },
    {
      "inputs": [
        {
          "internalType": "address",
          "name": "_from",
          "type": "address"
        },
        {
          "internalType": "address",
          "name": "_to",
          "type": "address"
        },
        {
          "internalType": "uint256",
          "name": "_tokenId",
          "type": "uint256"
        }
      ],
      "name": "safeTransferFrom",
      "outputs": [],
      "stateMutability": "payable",
      "type": "function"
    },
    {
      "inputs": [
        {
          "internalType": "address",
          "name": "_from",
          "type": "address"
        },
        {
          "internalType": "address",
          "name": "_to",
          "type": "address"
        },
        {
          "internalType": "uint256",
          "name": "_tokenId",
          "type": "uint256"
        },
        {
          "internalType": "bytes",
          "name": "data",
          "type": "bytes"
        }
      ],
      "name": "safeTransferFrom",
      "outputs": [],
      "stateMutability": "payable",
      "type": "function"
    },
    {
      "inputs": [
        {
          "internalType": "address",
          "name": "_from",
          "type": "address"
        },
        {
          "internalType": "address",
          "name": "_to",
          "type": "address"
        },
        {
          "internalType": "uint256",
          "name": "_tokenId",
          "type": "uint256"
        }
      ],
      "name": "transferFrom",
      "outputs": [],
      "stateMutability": "payable",
      "type": "function"
    },
    {
      "inputs": [
        {
          "internalType": "address",
          "name": "_approved",
          "type": "address"
        },
        {
          "internalType": "uint256",
          "name": "_tokenId",
          "type": "uint256"
        }
      ],
      "name": "approve",
      "outputs": [],
      "stateMutability": "payable",
      "type": "function"
    },
    {
      "inputs": [
        {
          "internalType": "address",
          "name": "_operator",
          "type": "address"
        },
        {
          "internalType": "bool",
          "name": "_approved",
          "type": "bool"
        }
      ],
      "name": "setApprovalForAll",
      "outputs": [],
      "stateMutability": "nonpayable",
      "type": "function"
    },
    {
      "inputs": [
        {
          "internalType": "uint256",
          "name": "_tokenId",
          "type": "uint256"
        }
      ],
      "name": "getApproved",
      "outputs": [
        {
          "internalType": "address",
          "name": "",
          "type": "address"
        }
      ],
      "stateMutability": "view",
      "type": "function"
    },
    {
      "inputs": [
        {
          "internalType": "address",
          "name": "_owner",
          "type": "address"
        },
        {
          "internalType": "address",
          "name": "_operator",
          "type": "address"
        }
      ],
      "name": "isApprovedForAll",
      "outputs": [
        {
          "internalType": "bool",
          "name": "",
          "type": "bool"
        }
      ],
      "stateMutability": "view",
      "type": "function"
    },
    {
      "inputs": [
        {
          "internalType": "uint256",
          "name": "_tokenId",
          "type": "uint256"
        }
      ],
      "name": "checkTimeout",
      "outputs": [
        {
          "internalType": "bool",
          "name": "",
          "type": "bool"
        }
      ],
      "stateMutability": "nonpayable",
      "type": "function"
    },
    {
      "inputs": [],
      "name": "updateTimestamp",
      "outputs": [],
      "stateMutability": "nonpayable",
      "type": "function"
    },
    {
      "inputs": [
        {
          "internalType": "uint256",
          "name": "_tokenId",
          "type": "uint256"
        },
        {
          "internalType": "uint256",
          "name": "_timeout",
          "type": "uint256"
        }
      ],
      "name": "setTimeout",
      "outputs": [],
      "stateMutability": "nonpayable",
      "type": "function"
    }
  ],
  "bytecode": "0x608060405234801561001057600080fd5b50336000806101000a81548173ffffffffffffffffffffffffffffffffffffffff021916908373ffffffffffffffffffffffffffffffffffffffff160217905550600180819055506006604051806101200160405280600073ffffffffffffffffffffffffffffffffffffffff168152602001600073ffffffffffffffffffffffffffffffffffffffff168152602001600073ffffffffffffffffffffffffffffffffffffffff168152602001600060038111156100f7577f4e487b7100000000000000000000000000000000000000000000000000000000600052602160045260246000fd5b8152602001600081526020016000815260200160008152602001600081526020016000815250908060018154018082558091505060019003906000526020600020906008020160009091909190915060008201518160000160006101000a81548173ffffffffffffffffffffffffffffffffffffffff021916908373ffffffffffffffffffffffffffffffffffffffff16021790555060208201518160010160006101000a81548173ffffffffffffffffffffffffffffffffffffffff021916908373ffffffffffffffffffffffffffffffffffffffff16021790555060408201518160020160006101000a81548173ffffffffffffffffffffffffffffffffffffffff021916908373ffffffffffffffffffffffffffffffffffffffff16021790555060608201518160020160146101000a81548160ff0219169083600381111561026c577f4e487b7100000000000000000000000000000000000000000000000000000000600052602160045260246000fd5b02179055506080820151816003015560a0820151816004015560c0820151816005015560e082015181600601556101008201518160070155505061366f80620002b66000396000f3fe6080604052600436106101815760003560e01c80636ed776b2116100d1578063b88d4fde1161008a578063db4d295b11610064578063db4d295b146105a8578063e61e3a76146105d1578063e985e9c51461060e578063f7b44a0f1461064b57610181565b8063b88d4fde14610512578063c2f1f14a1461052e578063d15532581461056b57610181565b80636ed776b2146103dd57806370a082311461041a578063a22cb46514610457578063ad2661fc14610480578063adadaf40146104a9578063b684bf0c146104d257610181565b8063219a58231161013e578063531f2bcd11610118578063531f2bcd146102fd5780635329c681146103265780635a9f8682146103635780636352211e146103a057610181565b8063219a58231461028557806323b872dd146102c557806342842e0e146102e157610181565b8063081812fc14610186578063095ea7b3146101c35780630b6df367146101df5780630cb2228914610208578063128da698146102455780631c5be3d71461026e575b600080fd5b34801561019257600080fd5b506101ad60048036038101906101a891906131ca565b610688565b6040516101ba91906132f6565b60405180910390f35b6101dd60048036038101906101d8919061318e565b61068f565b005b3480156101eb57600080fd5b506102066004803603810190610201919061322f565b610693565b005b34801561021457600080fd5b5061022f600480360381019061022a9190613023565b610752565b60405161023c91906133b6565b60405180910390f35b34801561025157600080fd5b5061026c6004803603810190610267919061326b565b61079b565b005b34801561027a57600080fd5b50610283610a12565b005b34801561029157600080fd5b506102ac60048036038101906102a791906131ca565b610a6c565b6040516102bc9493929190613311565b60405180910390f35b6102df60048036038101906102da9190613088565b610e20565b005b6102fb60048036038101906102f69190613088565b611472565b005b34801561030957600080fd5b50610324600480360381019061031f91906131ca565b611482565b005b34801561033257600080fd5b5061034d600480360381019061034891906131ca565b611780565b60405161035a919061339b565b60405180910390f35b34801561036f57600080fd5b5061038a6004803603810190610385919061304c565b611961565b60405161039791906133b6565b60405180910390f35b3480156103ac57600080fd5b506103c760048036038101906103c291906131ca565b611969565b6040516103d491906132f6565b60405180910390f35b3480156103e957600080fd5b5061040460048036038101906103ff919061304c565b6119a6565b60405161041191906133b6565b60405180910390f35b34801561042657600080fd5b50610441600480360381019061043c9190613023565b611d80565b60405161044e91906133b6565b60405180910390f35b34801561046357600080fd5b5061047e60048036038101906104799190613152565b611dc9565b005b34801561048c57600080fd5b506104a760048036038101906104a291906131ca565b611dcd565b005b3480156104b557600080fd5b506104d060048036038101906104cb919061326b565b6120cb565b005b3480156104de57600080fd5b506104f960048036038101906104f49190613023565b61237a565b6040516105099493929190613356565b60405180910390f35b61052c600480360381019061052791906130d7565b612702565b005b34801561053a57600080fd5b50610555600480360381019061055091906131ca565b612708565b60405161056291906132f6565b60405180910390f35b34801561057757600080fd5b50610592600480360381019061058d9190613023565b61277d565b60405161059f91906132f6565b60405180910390f35b3480156105b457600080fd5b506105cf60048036038101906105ca91906131f3565b612831565b005b3480156105dd57600080fd5b506105f860048036038101906105f39190613023565b612eaf565b60405161060591906133b6565b60405180910390f35b34801561061a57600080fd5b506106356004803603810190610630919061304c565b612ef8565b604051610642919061339b565b60405180910390f35b34801561065757600080fd5b50610672600480360381019061066d9190613023565b612f00565b60405161067f91906132f6565b60405180910390f35b6000919050565b5050565b3373ffffffffffffffffffffffffffffffffffffffff166002600084815260200190815260200160002060009054906101000a900473ffffffffffffffffffffffffffffffffffffffff1673ffffffffffffffffffffffffffffffffffffffff16146106fe57600080fd5b8060068381548110610739577f4e487b7100000000000000000000000000000000000000000000000000000000600052603260045260246000fd5b9060005260206000209060080201600701819055505050565b6000600560008373ffffffffffffffffffffffffffffffffffffffff1673ffffffffffffffffffffffffffffffffffffffff168152602001908152602001600020549050919050565b3373ffffffffffffffffffffffffffffffffffffffff166002600085815260200190815260200160002060009054906101000a900473ffffffffffffffffffffffffffffffffffffffff1673ffffffffffffffffffffffffffffffffffffffff161461080657600080fd5b4260068481548110610841577f4e487b7100000000000000000000000000000000000000000000000000000000600052603260045260246000fd5b9060005260206000209060080201600701546006858154811061088d577f4e487b7100000000000000000000000000000000000000000000000000000000600052603260045260246000fd5b9060005260206000209060080201600601546108a99190613427565b11156109545781600684815481106108ea577f4e487b7100000000000000000000000000000000000000000000000000000000600052603260045260246000fd5b906000526020600020906008020160050181905550806006848154811061093a577f4e487b7100000000000000000000000000000000000000000000000000000000600052603260045260246000fd5b906000526020600020906008020160030181905550610a0d565b600060068481548110610990577f4e487b7100000000000000000000000000000000000000000000000000000000600052603260045260246000fd5b906000526020600020906008020160020160006101000a81548173ffffffffffffffffffffffffffffffffffffffff021916908373ffffffffffffffffffffffffffffffffffffffff160217905550827f7e1636e7e3d95ceaa354ed9d47ea056b46cbcc0c448b26c6efaac0af3310030560405160405180910390a25b505050565b426006610a1e33612eaf565b81548110610a55577f4e487b7100000000000000000000000000000000000000000000000000000000600052603260045260246000fd5b906000526020600020906008020160060181905550565b6000806000806002600086815260200190815260200160002060009054906101000a900473ffffffffffffffffffffffffffffffffffffffff16935060068581548110610ae2577f4e487b7100000000000000000000000000000000000000000000000000000000600052603260045260246000fd5b906000526020600020906008020160020160009054906101000a900473ffffffffffffffffffffffffffffffffffffffff16925060068581548110610b50577f4e487b7100000000000000000000000000000000000000000000000000000000600052603260045260246000fd5b906000526020600020906008020160010160009054906101000a900473ffffffffffffffffffffffffffffffffffffffff16915060006003811115610bbe577f4e487b7100000000000000000000000000000000000000000000000000000000600052602160045260246000fd5b60068681548110610bf8577f4e487b7100000000000000000000000000000000000000000000000000000000600052603260045260246000fd5b906000526020600020906008020160020160149054906101000a900460ff166003811115610c4f577f4e487b7100000000000000000000000000000000000000000000000000000000600052602160045260246000fd5b1415610c5e5760009050610e19565b60016003811115610c98577f4e487b7100000000000000000000000000000000000000000000000000000000600052602160045260246000fd5b60068681548110610cd2577f4e487b7100000000000000000000000000000000000000000000000000000000600052603260045260246000fd5b906000526020600020906008020160020160149054906101000a900460ff166003811115610d29577f4e487b7100000000000000000000000000000000000000000000000000000000600052602160045260246000fd5b1415610d385760019050610e18565b60026003811115610d72577f4e487b7100000000000000000000000000000000000000000000000000000000600052602160045260246000fd5b60068681548110610dac577f4e487b7100000000000000000000000000000000000000000000000000000000600052603260045260246000fd5b906000526020600020906008020160020160149054906101000a900460ff166003811115610e03577f4e487b7100000000000000000000000000000000000000000000000000000000600052602160045260246000fd5b1415610e125760029050610e17565b600390505b5b5b9193509193565b3373ffffffffffffffffffffffffffffffffffffffff166002600083815260200190815260200160002060009054906101000a900473ffffffffffffffffffffffffffffffffffffffff1673ffffffffffffffffffffffffffffffffffffffff161480610f2357503373ffffffffffffffffffffffffffffffffffffffff1660068281548110610ed9577f4e487b7100000000000000000000000000000000000000000000000000000000600052603260045260246000fd5b906000526020600020906008020160000160009054906101000a900473ffffffffffffffffffffffffffffffffffffffff1673ffffffffffffffffffffffffffffffffffffffff16145b610f2c57600080fd5b8273ffffffffffffffffffffffffffffffffffffffff166002600083815260200190815260200160002060009054906101000a900473ffffffffffffffffffffffffffffffffffffffff1673ffffffffffffffffffffffffffffffffffffffff1614610f9757600080fd5b4260068281548110610fd2577f4e487b7100000000000000000000000000000000000000000000000000000000600052603260045260246000fd5b9060005260206000209060080201600701546006838154811061101e577f4e487b7100000000000000000000000000000000000000000000000000000000600052603260045260246000fd5b90600052602060002090600802016006015461103a9190613427565b11156113b457816002600083815260200190815260200160002060006101000a81548173ffffffffffffffffffffffffffffffffffffffff021916908373ffffffffffffffffffffffffffffffffffffffff160217905550600460008473ffffffffffffffffffffffffffffffffffffffff1673ffffffffffffffffffffffffffffffffffffffff16815260200190815260200160002060008154809291906110e2906134e1565b9190505550600460008373ffffffffffffffffffffffffffffffffffffffff1673ffffffffffffffffffffffffffffffffffffffff16815260200190815260200160002060008154809291906111379061353c565b9190505550600060068281548110611178577f4e487b7100000000000000000000000000000000000000000000000000000000600052603260045260246000fd5b906000526020600020906008020160020160006101000a81548173ffffffffffffffffffffffffffffffffffffffff021916908373ffffffffffffffffffffffffffffffffffffffff160217905550600060068281548110611203577f4e487b7100000000000000000000000000000000000000000000000000000000600052603260045260246000fd5b906000526020600020906008020160020160146101000a81548160ff0219169083600381111561125c577f4e487b7100000000000000000000000000000000000000000000000000000000600052602160045260246000fd5b021790555060006006828154811061129d577f4e487b7100000000000000000000000000000000000000000000000000000000600052603260045260246000fd5b9060005260206000209060080201600501819055506000600682815481106112ee577f4e487b7100000000000000000000000000000000000000000000000000000000600052603260045260246000fd5b90600052602060002090600802016004018190555060006006828154811061133f577f4e487b7100000000000000000000000000000000000000000000000000000000600052603260045260246000fd5b906000526020600020906008020160030181905550808273ffffffffffffffffffffffffffffffffffffffff168473ffffffffffffffffffffffffffffffffffffffff167fddf252ad1be2c89b69c2b068fc378daa952ba7f163c4a11628f55a4df523b3ef60405160405180910390a461146d565b6000600682815481106113f0577f4e487b7100000000000000000000000000000000000000000000000000000000600052603260045260246000fd5b906000526020600020906008020160020160006101000a81548173ffffffffffffffffffffffffffffffffffffffff021916908373ffffffffffffffffffffffffffffffffffffffff160217905550807f7e1636e7e3d95ceaa354ed9d47ea056b46cbcc0c448b26c6efaac0af3310030560405160405180910390a25b505050565b61147d838383610e20565b505050565b600061148d33612eaf565b90506000600682815481106114cb577f4e487b7100000000000000000000000000000000000000000000000000000000600052603260045260246000fd5b90600052602060002090600802016005015414156114e857600080fd5b8160068281548110611523577f4e487b7100000000000000000000000000000000000000000000000000000000600052603260045260246000fd5b9060005260206000209060080201600401541461153f57600080fd5b60026003811115611579577f4e487b7100000000000000000000000000000000000000000000000000000000600052602160045260246000fd5b600682815481106115b3577f4e487b7100000000000000000000000000000000000000000000000000000000600052603260045260246000fd5b906000526020600020906008020160020160149054906101000a900460ff16600381111561160a577f4e487b7100000000000000000000000000000000000000000000000000000000600052602160045260246000fd5b1461161457600080fd5b600060068281548110611650577f4e487b7100000000000000000000000000000000000000000000000000000000600052603260045260246000fd5b90600052602060002090600802016005018190555042600682815481106116a0577f4e487b7100000000000000000000000000000000000000000000000000000000600052603260045260246000fd5b9060005260206000209060080201600601819055506003600682815481106116f1577f4e487b7100000000000000000000000000000000000000000000000000000000600052603260045260246000fd5b906000526020600020906008020160020160146101000a81548160ff0219169083600381111561174a577f4e487b7100000000000000000000000000000000000000000000000000000000600052602160045260246000fd5b0217905550807f0a74f4ab94fad84ffc38a74f59789bf53235489daa6ae3b0010116780c1588a460405160405180910390a25050565b60003373ffffffffffffffffffffffffffffffffffffffff166002600084815260200190815260200160002060009054906101000a900473ffffffffffffffffffffffffffffffffffffffff1673ffffffffffffffffffffffffffffffffffffffff16146117ed57600080fd5b4260068381548110611828577f4e487b7100000000000000000000000000000000000000000000000000000000600052603260045260246000fd5b90600052602060002090600802016007015460068481548110611874577f4e487b7100000000000000000000000000000000000000000000000000000000600052603260045260246000fd5b9060005260206000209060080201600601546118909190613427565b111561189f576001905061195c565b6000600683815481106118db577f4e487b7100000000000000000000000000000000000000000000000000000000600052603260045260246000fd5b906000526020600020906008020160020160006101000a81548173ffffffffffffffffffffffffffffffffffffffff021916908373ffffffffffffffffffffffffffffffffffffffff160217905550817f7e1636e7e3d95ceaa354ed9d47ea056b46cbcc0c448b26c6efaac0af3310030560405160405180910390a2600090505b919050565b600092915050565b60006002600083815260200190815260200160002060009054906101000a900473ffffffffffffffffffffffffffffffffffffffff169050919050565b60003373ffffffffffffffffffffffffffffffffffffffff1660008054906101000a900473ffffffffffffffffffffffffffffffffffffffff1673ffffffffffffffffffffffffffffffffffffffff1614611a0057600080fd5b6000611a0b84612eaf565b1415611d6e576006604051806101200160405280600073ffffffffffffffffffffffffffffffffffffffff1681526020018573ffffffffffffffffffffffffffffffffffffffff168152602001600073ffffffffffffffffffffffffffffffffffffffff16815260200160006003811115611aaf577f4e487b7100000000000000000000000000000000000000000000000000000000600052602160045260246000fd5b815260200160008152602001600081526020016000815260200142815260200162015180815250908060018154018082558091505060019003906000526020600020906008020160009091909190915060008201518160000160006101000a81548173ffffffffffffffffffffffffffffffffffffffff021916908373ffffffffffffffffffffffffffffffffffffffff16021790555060208201518160010160006101000a81548173ffffffffffffffffffffffffffffffffffffffff021916908373ffffffffffffffffffffffffffffffffffffffff16021790555060408201518160020160006101000a81548173ffffffffffffffffffffffffffffffffffffffff021916908373ffffffffffffffffffffffffffffffffffffffff16021790555060608201518160020160146101000a81548160ff02191690836003811115611c25577f4e487b7100000000000000000000000000000000000000000000000000000000600052602160045260246000fd5b02179055506080820151816003015560a0820151816004015560c0820151816005015560e0820151816006015561010082015181600701555050600060016000815480929190611c749061353c565b91905055905080600360008673ffffffffffffffffffffffffffffffffffffffff1673ffffffffffffffffffffffffffffffffffffffff16815260200190815260200160002081905550826002600083815260200190815260200160002060006101000a81548173ffffffffffffffffffffffffffffffffffffffff021916908373ffffffffffffffffffffffffffffffffffffffff160217905550600460008473ffffffffffffffffffffffffffffffffffffffff1673ffffffffffffffffffffffffffffffffffffffff1681526020019081526020016000206000815480929190611d609061353c565b919050555080915050611d7a565b611d7783612eaf565b90505b92915050565b6000600460008373ffffffffffffffffffffffffffffffffffffffff1673ffffffffffffffffffffffffffffffffffffffff168152602001908152602001600020549050919050565b5050565b6000611dd833612eaf565b9050600060068281548110611e16577f4e487b7100000000000000000000000000000000000000000000000000000000600052603260045260246000fd5b9060005260206000209060080201600501541415611e3357600080fd5b8160068281548110611e6e577f4e487b7100000000000000000000000000000000000000000000000000000000600052603260045260246000fd5b90600052602060002090600802016003015414611e8a57600080fd5b60006003811115611ec4577f4e487b7100000000000000000000000000000000000000000000000000000000600052602160045260246000fd5b60068281548110611efe577f4e487b7100000000000000000000000000000000000000000000000000000000600052603260045260246000fd5b906000526020600020906008020160020160149054906101000a900460ff166003811115611f55577f4e487b7100000000000000000000000000000000000000000000000000000000600052602160045260246000fd5b14611f5f57600080fd5b600060068281548110611f9b577f4e487b7100000000000000000000000000000000000000000000000000000000600052603260045260246000fd5b9060005260206000209060080201600501819055504260068281548110611feb577f4e487b7100000000000000000000000000000000000000000000000000000000600052603260045260246000fd5b90600052602060002090600802016006018190555060016006828154811061203c577f4e487b7100000000000000000000000000000000000000000000000000000000600052603260045260246000fd5b906000526020600020906008020160020160146101000a81548160ff02191690836003811115612095577f4e487b7100000000000000000000000000000000000000000000000000000000600052602160045260246000fd5b0217905550807fd0582651f57ffea78c4fa2df3eaf04bf2ff083277a6c1145411c72b9c1dc474c60405160405180910390a25050565b3373ffffffffffffffffffffffffffffffffffffffff166006848154811061211c577f4e487b7100000000000000000000000000000000000000000000000000000000600052603260045260246000fd5b906000526020600020906008020160020160009054906101000a900473ffffffffffffffffffffffffffffffffffffffff1673ffffffffffffffffffffffffffffffffffffffff161461216e57600080fd5b42600684815481106121a9577f4e487b7100000000000000000000000000000000000000000000000000000000600052603260045260246000fd5b906000526020600020906008020160070154600685815481106121f5577f4e487b7100000000000000000000000000000000000000000000000000000000600052603260045260246000fd5b9060005260206000209060080201600601546122119190613427565b11156122bc578160068481548110612252577f4e487b7100000000000000000000000000000000000000000000000000000000600052603260045260246000fd5b90600052602060002090600802016005018190555080600684815481106122a2577f4e487b7100000000000000000000000000000000000000000000000000000000600052603260045260246000fd5b906000526020600020906008020160040181905550612375565b6000600684815481106122f8577f4e487b7100000000000000000000000000000000000000000000000000000000600052603260045260246000fd5b906000526020600020906008020160020160006101000a81548173ffffffffffffffffffffffffffffffffffffffff021916908373ffffffffffffffffffffffffffffffffffffffff160217905550827f7e1636e7e3d95ceaa354ed9d47ea056b46cbcc0c448b26c6efaac0af3310030560405160405180910390a25b505050565b600080600080600360008673ffffffffffffffffffffffffffffffffffffffff1673ffffffffffffffffffffffffffffffffffffffff1681526020019081526020016000205491506002600083815260200190815260200160002060009054906101000a900473ffffffffffffffffffffffffffffffffffffffff16935060068281548110612432577f4e487b7100000000000000000000000000000000000000000000000000000000600052603260045260246000fd5b906000526020600020906008020160020160009054906101000a900473ffffffffffffffffffffffffffffffffffffffff169250600060038111156124a0577f4e487b7100000000000000000000000000000000000000000000000000000000600052602160045260246000fd5b600683815481106124da577f4e487b7100000000000000000000000000000000000000000000000000000000600052603260045260246000fd5b906000526020600020906008020160020160149054906101000a900460ff166003811115612531577f4e487b7100000000000000000000000000000000000000000000000000000000600052602160045260246000fd5b141561254057600090506126fb565b6001600381111561257a577f4e487b7100000000000000000000000000000000000000000000000000000000600052602160045260246000fd5b600683815481106125b4577f4e487b7100000000000000000000000000000000000000000000000000000000600052603260045260246000fd5b906000526020600020906008020160020160149054906101000a900460ff16600381111561260b577f4e487b7100000000000000000000000000000000000000000000000000000000600052602160045260246000fd5b141561261a57600190506126fa565b60026003811115612654577f4e487b7100000000000000000000000000000000000000000000000000000000600052602160045260246000fd5b6006838154811061268e577f4e487b7100000000000000000000000000000000000000000000000000000000600052603260045260246000fd5b906000526020600020906008020160020160149054906101000a900460ff1660038111156126e5577f4e487b7100000000000000000000000000000000000000000000000000000000600052602160045260246000fd5b14156126f457600290506126f9565b600390505b5b5b9193509193565b50505050565b600060068281548110612744577f4e487b7100000000000000000000000000000000000000000000000000000000600052603260045260246000fd5b906000526020600020906008020160020160009054906101000a900473ffffffffffffffffffffffffffffffffffffffff169050919050565b60006006600360008473ffffffffffffffffffffffffffffffffffffffff1673ffffffffffffffffffffffffffffffffffffffff16815260200190815260200160002054815481106127f8577f4e487b7100000000000000000000000000000000000000000000000000000000600052603260045260246000fd5b906000526020600020906008020160020160009054906101000a900473ffffffffffffffffffffffffffffffffffffffff169050919050565b3373ffffffffffffffffffffffffffffffffffffffff166002600084815260200190815260200160002060009054906101000a900473ffffffffffffffffffffffffffffffffffffffff1673ffffffffffffffffffffffffffffffffffffffff161480156129685750600160038111156128d4577f4e487b7100000000000000000000000000000000000000000000000000000000600052602160045260246000fd5b6006838154811061290e577f4e487b7100000000000000000000000000000000000000000000000000000000600052603260045260246000fd5b906000526020600020906008020160020160149054906101000a900460ff166003811115612965577f4e487b7100000000000000000000000000000000000000000000000000000000600052602160045260246000fd5b10155b61297157600080fd5b42600683815481106129ac577f4e487b7100000000000000000000000000000000000000000000000000000000600052603260045260246000fd5b906000526020600020906008020160070154600684815481106129f8577f4e487b7100000000000000000000000000000000000000000000000000000000600052603260045260246000fd5b906000526020600020906008020160060154612a149190613427565b1115612df25760006005600060068581548110612a5a577f4e487b7100000000000000000000000000000000000000000000000000000000600052603260045260246000fd5b906000526020600020906008020160020160009054906101000a900473ffffffffffffffffffffffffffffffffffffffff1673ffffffffffffffffffffffffffffffffffffffff1673ffffffffffffffffffffffffffffffffffffffff168152602001908152602001600020541115612b8e576005600060068481548110612b0b577f4e487b7100000000000000000000000000000000000000000000000000000000600052603260045260246000fd5b906000526020600020906008020160020160009054906101000a900473ffffffffffffffffffffffffffffffffffffffff1673ffffffffffffffffffffffffffffffffffffffff1673ffffffffffffffffffffffffffffffffffffffff1681526020019081526020016000206000815480929190612b88906134e1565b91905055505b600560008273ffffffffffffffffffffffffffffffffffffffff1673ffffffffffffffffffffffffffffffffffffffff1681526020019081526020016000206000815480929190612bde9061353c565b91905055508060068381548110612c1e577f4e487b7100000000000000000000000000000000000000000000000000000000600052603260045260246000fd5b906000526020600020906008020160020160006101000a81548173ffffffffffffffffffffffffffffffffffffffff021916908373ffffffffffffffffffffffffffffffffffffffff160217905550600260068381548110612ca9577f4e487b7100000000000000000000000000000000000000000000000000000000600052603260045260246000fd5b906000526020600020906008020160020160146101000a81548160ff02191690836003811115612d02577f4e487b7100000000000000000000000000000000000000000000000000000000600052602160045260246000fd5b0217905550600060068381548110612d43577f4e487b7100000000000000000000000000000000000000000000000000000000600052603260045260246000fd5b906000526020600020906008020160050181905550600060068381548110612d94577f4e487b7100000000000000000000000000000000000000000000000000000000600052603260045260246000fd5b9060005260206000209060080201600401819055508073ffffffffffffffffffffffffffffffffffffffff16827fa366111dc7688b9ffb71476107b8b733fd141e7b370cff8480c03f4ec4409cd760405160405180910390a3612eab565b600060068381548110612e2e577f4e487b7100000000000000000000000000000000000000000000000000000000600052603260045260246000fd5b906000526020600020906008020160020160006101000a81548173ffffffffffffffffffffffffffffffffffffffff021916908373ffffffffffffffffffffffffffffffffffffffff160217905550817f7e1636e7e3d95ceaa354ed9d47ea056b46cbcc0c448b26c6efaac0af3310030560405160405180910390a25b5050565b6000600360008373ffffffffffffffffffffffffffffffffffffffff1673ffffffffffffffffffffffffffffffffffffffff168152602001908152602001600020549050919050565b600092915050565b600060026000600360008573ffffffffffffffffffffffffffffffffffffffff1673ffffffffffffffffffffffffffffffffffffffff16815260200190815260200160002054815260200190815260200160002060009054906101000a900473ffffffffffffffffffffffffffffffffffffffff169050919050565b6000612f8f612f8a846133f6565b6133d1565b905082815260208101848484011115612fa757600080fd5b612fb28482856134d2565b509392505050565b600081359050612fc9816135f4565b92915050565b600081359050612fde8161360b565b92915050565b600082601f830112612ff557600080fd5b8135613005848260208601612f7c565b91505092915050565b60008135905061301d81613622565b92915050565b60006020828403121561303557600080fd5b600061304384828501612fba565b91505092915050565b6000806040838503121561305f57600080fd5b600061306d85828601612fba565b925050602061307e85828601612fba565b9150509250929050565b60008060006060848603121561309d57600080fd5b60006130ab86828701612fba565b93505060206130bc86828701612fba565b92505060406130cd8682870161300e565b9150509250925092565b600080600080608085870312156130ed57600080fd5b60006130fb87828801612fba565b945050602061310c87828801612fba565b935050604061311d8782880161300e565b925050606085013567ffffffffffffffff81111561313a57600080fd5b61314687828801612fe4565b91505092959194509250565b6000806040838503121561316557600080fd5b600061317385828601612fba565b925050602061318485828601612fcf565b9150509250929050565b600080604083850312156131a157600080fd5b60006131af85828601612fba565b92505060206131c08582860161300e565b9150509250929050565b6000602082840312156131dc57600080fd5b60006131ea8482850161300e565b91505092915050565b6000806040838503121561320657600080fd5b60006132148582860161300e565b925050602061322585828601612fba565b9150509250929050565b6000806040838503121561324257600080fd5b60006132508582860161300e565b92505060206132618582860161300e565b9150509250929050565b60008060006060848603121561328057600080fd5b600061328e8682870161300e565b935050602061329f8682870161300e565b92505060406132b08682870161300e565b9150509250925092565b6132c38161347d565b82525050565b6132d28161348f565b82525050565b6132e1816134bb565b82525050565b6132f0816134c5565b82525050565b600060208201905061330b60008301846132ba565b92915050565b600060808201905061332660008301876132ba565b61333360208301866132ba565b61334060408301856132ba565b61334d60608301846132e7565b95945050505050565b600060808201905061336b60008301876132ba565b61337860208301866132ba565b61338560408301856132d8565b61339260608301846132e7565b95945050505050565b60006020820190506133b060008301846132c9565b92915050565b60006020820190506133cb60008301846132d8565b92915050565b60006133db6133ec565b90506133e7828261350b565b919050565b6000604051905090565b600067ffffffffffffffff821115613411576134106135b4565b5b61341a826135e3565b9050602081019050919050565b6000613432826134bb565b915061343d836134bb565b9250827fffffffffffffffffffffffffffffffffffffffffffffffffffffffffffffffff0382111561347257613471613585565b5b828201905092915050565b60006134888261349b565b9050919050565b60008115159050919050565b600073ffffffffffffffffffffffffffffffffffffffff82169050919050565b6000819050919050565b600060ff82169050919050565b82818337600083830152505050565b60006134ec826134bb565b91506000821415613500576134ff613585565b5b600182039050919050565b613514826135e3565b810181811067ffffffffffffffff82111715613533576135326135b4565b5b80604052505050565b6000613547826134bb565b91507fffffffffffffffffffffffffffffffffffffffffffffffffffffffffffffffff82141561357a57613579613585565b5b600182019050919050565b7f4e487b7100000000000000000000000000000000000000000000000000000000600052601160045260246000fd5b7f4e487b7100000000000000000000000000000000000000000000000000000000600052604160045260246000fd5b6000601f19601f8301169050919050565b6135fd8161347d565b811461360857600080fd5b50565b6136148161348f565b811461361f57600080fd5b50565b61362b816134bb565b811461363657600080fd5b5056fea2646970667358221220e27cda753d65b03f514b2df36a8e9131fb448bcee8b1dad88baef0a65b352b0f64736f6c63430008040033",
  "immutableReferences": {},
  "source": "// SPDX-License-Identifier: MIT\npragma solidity >=0.4.22 <0.9.0;\n\nimport \"./smartNFT_Interface.sol\";\nimport \"./ERC721_Interface.sol\";\n\ncontract smartNFT_SC is ERC721, smartNFT {\n    enum States {\n        waitingForOwner,\n        engagedWithOwner,\n        waitingForUser,\n        engagedWithUser\n    }\n\n    address manufacturer; //Address of manufacturer and owner of Smart Contract\n    uint256 tokenCounter; //To give and genuine tokenID based on the number of tokens created.\n    mapping(uint256 => address) ownerOfSD; //To khow who is the owner of an specific owner.\n    mapping(address => uint256) tokenIDOfBCA; //To khow which is the tokenID associated to a Secure Device.\n    mapping(address => uint256) ownerBalance; //To know how many tokens an owner has.\n    mapping(address => uint256) userBalance; //To know how many tokens a user can use.\n\n    struct Token_Struct {\n        address approved; //Indicate who can transfer this token, 0 if no one.\n        address SD; //Indicate the BCA of the Secure device associated to this token.\n        address user; //Indicate who can use this secure device.\n        States state; //If blocked (false) then token should be verified by new user or new owner.\n        uint256 hashK_OD; //Hash of Key between owner and device.\n        uint256 hashK_UD; //Hash of Key between user and device.\n        uint256 dataEngagement; //Public Key to create K_OD or K_UD depending of token state.\n        uint256 timestamp; //Last time device update its proof of live\n        uint256 timeout; //timeout to verify a device error.\n    }\n\n    Token_Struct[] Secure_Token;\n\n    constructor() {\n        manufacturer = msg.sender;\n        tokenCounter = 1;\n        Secure_Token.push(\n            Token_Struct(\n                address(0),\n                address(0),\n                address(0),\n                States.waitingForOwner,\n                0,\n                0,\n                0,\n                0,\n                0\n            )\n        );\n    }\n\n    function createToken(address _addressSD, address _addressOwner)\n        public\n        virtual\n        override\n        returns (uint256)\n    {\n        //Check if the sender of message is from the manufacturer.\n        require(manufacturer == msg.sender);\n        //Check is Blockchain Account of Smart Device in the SmartContract\n        if (tokenFromBCA(_addressSD) == 0) {\n            //create a new token\n            Secure_Token.push(\n                Token_Struct(\n                    address(0),\n                    _addressSD,\n                    address(0),\n                    States.waitingForOwner,\n                    0,\n                    0,\n                    0,\n                    block.timestamp,\n                    86400\n                )\n            );\n            //Assigning a new tokenId\n            uint256 _tokenId = tokenCounter++;\n            tokenIDOfBCA[_addressSD] = _tokenId;\n            //Assigning the owner\n            ownerOfSD[_tokenId] = _addressOwner;\n            ownerBalance[_addressOwner]++;\n            //return tokenId obtained\n            return (_tokenId);\n        } else {\n            //If the BCA already exists then return the _tokenId\n            return (tokenFromBCA(_addressSD));\n        }\n    }\n\n    function setUser(uint256 _tokenId, address _addressUser)\n        public\n        virtual\n        override\n    {\n        //Check if sender is the owner of token and the token state.\n        require(\n            (ownerOfSD[_tokenId] == msg.sender) &&\n                (Secure_Token[_tokenId].state >= States.engagedWithOwner)\n        );\n        if (\n            (Secure_Token[_tokenId].timestamp +\n                Secure_Token[_tokenId].timeout) > block.timestamp\n        ) {\n            //Only for ensure avoid overflow, for example in address 0.\n            if (userBalance[Secure_Token[_tokenId].user] > 0) {\n                //update the balance of token assigned to the old user\n                userBalance[Secure_Token[_tokenId].user]--;\n            }\n            ////update the balance of token assigned to the new user\n            userBalance[_addressUser]++;\n            //Assign the new user to the token\n            Secure_Token[_tokenId].user = _addressUser;\n            //update the state of the token\n            Secure_Token[_tokenId].state = States.waitingForUser;\n            //Erase old key exchange data between device with old UserAssigned\n            Secure_Token[_tokenId].dataEngagement = 0;\n            Secure_Token[_tokenId].hashK_UD = 0;\n            emit UserAssigned(_tokenId, _addressUser);\n        } else {\n            Secure_Token[_tokenId].user = address(0);\n            emit TimeoutAlarm(_tokenId);\n        }\n    }\n\n    function startOwnerEngagement(\n        uint256 _tokenId,\n        uint256 _dataEngagement,\n        uint256 _hashK_O\n    ) public virtual override {\n        //Check if sender is the Owner of token and the State of token\n        require(ownerOfSD[_tokenId] == msg.sender);\n        if (\n            (Secure_Token[_tokenId].timestamp +\n                Secure_Token[_tokenId].timeout) > block.timestamp\n        ) {\n            Secure_Token[_tokenId].dataEngagement = _dataEngagement;\n            Secure_Token[_tokenId].hashK_OD = _hashK_O;\n        } else {\n            Secure_Token[_tokenId].user = address(0);\n            emit TimeoutAlarm(_tokenId);\n        }\n    }\n\n    function ownerEngagement(uint256 _hashK_D) public virtual override {\n        uint256 _tokenId = tokenFromBCA(msg.sender);\n        //Check if public key owner-device exist from tokenID of BCA sender\n        require(Secure_Token[_tokenId].dataEngagement != 0);\n        require(Secure_Token[_tokenId].hashK_OD == _hashK_D);\n        require(Secure_Token[_tokenId].state == States.waitingForOwner);\n        //Erase PK_User-Device and update timestamp\n        Secure_Token[_tokenId].dataEngagement = 0;\n        Secure_Token[_tokenId].timestamp = block.timestamp;\n        //update the state of token\n        Secure_Token[_tokenId].state = States.engagedWithOwner;\n        //Send a notification to User and Device\n        emit OwnerEngaged(_tokenId);\n    }\n\n    function startUserEngagement(\n        uint256 _tokenId,\n        uint256 _dataEngagement,\n        uint256 _hashK_U\n    ) public virtual override {\n        //Check if sender is the User of token and the State of token\n        require(Secure_Token[_tokenId].user == msg.sender);\n        if (\n            (Secure_Token[_tokenId].timestamp +\n                Secure_Token[_tokenId].timeout) > block.timestamp\n        ) {\n            Secure_Token[_tokenId].dataEngagement = _dataEngagement;\n            Secure_Token[_tokenId].hashK_UD = _hashK_U;\n        } else {\n            Secure_Token[_tokenId].user = address(0);\n            emit TimeoutAlarm(_tokenId);\n        }\n    }\n\n    function userEngagement(uint256 _hashK_D) public virtual override {\n        uint256 _tokenId = tokenFromBCA(msg.sender);\n        //Check if public key user-device exist from tokenID of BCA sender\n        require(Secure_Token[_tokenId].dataEngagement != 0);\n        require(Secure_Token[_tokenId].hashK_UD == _hashK_D);\n        require(Secure_Token[_tokenId].state == States.waitingForUser);\n        //Erase PK_User-Device and update timestamp\n        Secure_Token[_tokenId].dataEngagement = 0;\n        Secure_Token[_tokenId].timestamp = block.timestamp;\n        //update the state of token\n        Secure_Token[_tokenId].state = States.engagedWithUser;\n        //Send a notification to User and Device\n        emit UserEngaged(_tokenId);\n    }\n\n    function tokenFromBCA(address _addressSD)\n        public\n        view\n        virtual\n        override\n        returns (uint256)\n    {\n        return (tokenIDOfBCA[_addressSD]);\n    }\n\n    function ownerOfFromBCA(address _addressSD)\n        public\n        view\n        virtual\n        override\n        returns (address)\n    {\n        return (ownerOfSD[tokenIDOfBCA[_addressSD]]);\n    }\n\n    function userOf(uint256 _tokenId)\n        public\n        view\n        virtual\n        override\n        returns (address)\n    {\n        return (Secure_Token[_tokenId].user);\n    }\n\n    function userOfFromBCA(address _addressSD)\n        public\n        view\n        virtual\n        override\n        returns (address)\n    {\n        return (Secure_Token[tokenIDOfBCA[_addressSD]].user);\n    }\n\n    function userBalanceOf(address _addressUser)\n        public\n        view\n        virtual\n        override\n        returns (uint256)\n    {\n        return (userBalance[_addressUser]);\n    }\n\n    function userBalanceOfAnOwner(address _addressUser, address _addressOwner)\n        public\n        view\n        virtual\n        override\n        returns (uint256)\n    {\n        //TODO\n    }\n\n    function getInfoToken(uint256 _tokenId)\n        public\n        view\n        returns (\n            address _BCA_OWNER,\n            address _BCA_USER,\n            address _BCA_SD,\n            uint8 _state\n        )\n    {\n        _BCA_OWNER = ownerOfSD[_tokenId];\n        _BCA_USER = Secure_Token[_tokenId].user;\n        _BCA_SD = Secure_Token[_tokenId].SD;\n        if (Secure_Token[_tokenId].state == States.waitingForOwner) {\n            _state = 0;\n        } else if (Secure_Token[_tokenId].state == States.engagedWithOwner) {\n            _state = 1;\n        } else if (Secure_Token[_tokenId].state == States.waitingForUser) {\n            _state = 2;\n        } else {\n            _state = 3;\n        }\n    }\n\n    function getInfoTokenFromBCA(address _addressSD)\n        public\n        view\n        returns (\n            address _BCA_OWNER,\n            address _BCA_USER,\n            uint256 _tokenId,\n            uint8 _state\n        )\n    {\n        _tokenId = tokenIDOfBCA[_addressSD];\n        _BCA_OWNER = ownerOfSD[_tokenId];\n        _BCA_USER = Secure_Token[_tokenId].user;\n        if (Secure_Token[_tokenId].state == States.waitingForOwner) {\n            _state = 0;\n        } else if (Secure_Token[_tokenId].state == States.engagedWithOwner) {\n            _state = 1;\n        } else if (Secure_Token[_tokenId].state == States.waitingForUser) {\n            _state = 2;\n        } else {\n            _state = 3;\n        }\n    }\n\n    function balanceOf(address _owner)\n        public\n        view\n        virtual\n        override\n        returns (uint256)\n    {\n        return (ownerBalance[_owner]);\n    }\n\n    function ownerOf(uint256 _tokenId)\n        public\n        view\n        virtual\n        override\n        returns (address)\n    {\n        return (ownerOfSD[_tokenId]);\n    }\n\n    function safeTransferFrom(\n        address _from,\n        address _to,\n        uint256 _tokenId,\n        bytes memory data\n    ) public payable virtual override {}\n\n    function safeTransferFrom(\n        address _from,\n        address _to,\n        uint256 _tokenId\n    ) public payable virtual override {\n        transferFrom(_from, _to, _tokenId);\n    }\n\n    function transferFrom(\n        address _from,\n        address _to,\n        uint256 _tokenId\n    ) public payable virtual override {\n        require(\n            (ownerOfSD[_tokenId] == msg.sender) ||\n                (Secure_Token[_tokenId].approved == msg.sender)\n        );\n        require(ownerOfSD[_tokenId] == _from);\n        if (\n            (Secure_Token[_tokenId].timestamp +\n                Secure_Token[_tokenId].timeout) > block.timestamp\n        ) {\n            ownerOfSD[_tokenId] = _to;\n            ownerBalance[_from]--;\n            ownerBalance[_to]++;\n            //Secure_Token[_tokenId].approved = address(0);\n            Secure_Token[_tokenId].user = address(0);\n            Secure_Token[_tokenId].state = States.waitingForOwner;\n            //Erase old key exchange data between device with old Owner\n            Secure_Token[_tokenId].dataEngagement = 0;\n            Secure_Token[_tokenId].hashK_UD = 0;\n            Secure_Token[_tokenId].hashK_OD = 0;\n            emit Transfer(_from, _to, _tokenId);\n        } else {\n            Secure_Token[_tokenId].user = address(0);\n            emit TimeoutAlarm(_tokenId);\n        }\n    }\n\n    function approve(address _approved, uint256 _tokenId)\n        public\n        payable\n        virtual\n        override\n    {}\n\n    function setApprovalForAll(address _operator, bool _approved)\n        public\n        virtual\n        override\n    {}\n\n    function getApproved(uint256 _tokenId)\n        public\n        view\n        virtual\n        override\n        returns (address)\n    {}\n\n    function isApprovedForAll(address _owner, address _operator)\n        public\n        view\n        virtual\n        override\n        returns (bool)\n    {}\n\n    function checkTimeout(uint256 _tokenId)\n        public\n        virtual\n        override\n        returns (bool)\n    {\n        require(ownerOfSD[_tokenId] == msg.sender);\n        if (\n            (Secure_Token[_tokenId].timestamp +\n                Secure_Token[_tokenId].timeout) > block.timestamp\n        ) {\n            return true;\n        } else {\n            Secure_Token[_tokenId].user = address(0);\n            emit TimeoutAlarm(_tokenId);\n            return false;\n        }\n    }\n\n    function updateTimestamp() public virtual override {\n        Secure_Token[tokenFromBCA(msg.sender)].timestamp = block.timestamp;\n    }\n\n    function setTimeout(uint256 _tokenId, uint256 _timeout)\n        public\n        virtual\n        override\n    {\n        require(ownerOfSD[_tokenId] == msg.sender);\n        Secure_Token[_tokenId].timeout = _timeout;\n    }\n}\n",
  "sourcePath": "/Users/jackmcknight/Documents/beam_research/Smart-Non-Fungible-Token/contracts/PoC_smartNFT.sol",
  "compiler": {
    "name": "solc",
    "version": "0.8.4+commit.c7e474f2.Emscripten.clang"
  },
  "schemaVersion": "3.4.1",
  "updatedAt": "2021-05-27T19:38:47.021Z",
  "devdoc": {
    "kind": "dev",
    "methods": {
      "approve(address,uint256)": {
        "details": "The zero address indicates there is no approved address.Throws unless `msg.sender` is the current NFT owner, or an authorized  operator of the current owner.",
        "params": {
          "_approved": "The new approved NFT controller",
          "_tokenId": "The NFT to approve"
        }
      },
      "balanceOf(address)": {
        "details": "NFTs assigned to the zero address are considered invalid, and this  function throws for queries about the zero address.",
        "params": {
          "_owner": "An address for whom to query the balance"
        },
        "returns": {
          "_0": "The number of NFTs owned by `_owner`, possibly zero"
        }
      },
      "createToken(address,address)": {
        "details": "Only the manufacturer of SD account can create a token and will be the first owner of token.  The inital state of the token is \"waitingForOwner\" until verification by the new Owner.",
        "params": {
          "_addressSD": "An address generated by the smart device, who only de smart device can generate this account. _addressOwner is the first owner of the Smart Device"
        },
        "returns": {
          "_0": "The tokenID of the token generated binded to Smart Device."
        }
      },
      "getApproved(uint256)": {
        "details": "Throws if `_tokenId` is not a valid NFT",
        "params": {
          "_tokenId": "The NFT to find the approved address for"
        },
        "returns": {
          "_0": "The approved address for this NFT, or the zero address if there is none"
        }
      },
      "isApprovedForAll(address,address)": {
        "params": {
          "_operator": "The address that acts on behalf of the owner",
          "_owner": "The address that owns the NFTs"
        },
        "returns": {
          "_0": "True if `_operator` is an approved operator for `_owner`, false otherwise"
        }
      },
      "ownerOf(uint256)": {
        "details": "NFTs assigned to zero address are considered invalid, and queries  about them do throw.",
        "params": {
          "_tokenId": "The identifier for an NFT"
        },
        "returns": {
          "_0": "The address of the owner of the NFT"
        }
      },
      "ownerOfFromBCA(address)": {
        "details": "Everybody can call this function, can be execute any code on blockchain only read.",
        "params": {
          "_addressSD": "the addres to obtain it's owner."
        },
        "returns": {
          "_0": "The owner of the token generated binded to _addressSD."
        }
      },
      "safeTransferFrom(address,address,uint256)": {
        "details": "This works identically to the other function with an extra data parameter,  except this function just sets data to \"\"",
        "params": {
          "_from": "The current owner of the NFT",
          "_to": "The new owner",
          "_tokenId": "The NFT to transfer"
        }
      },
      "safeTransferFrom(address,address,uint256,bytes)": {
        "details": "Throws unless `msg.sender` is the current owner, an authorized  operator, or the approved address for this NFT. Throws if `_from` is  not the current owner. Throws if `_to` is the zero address. Throws if  `_tokenId` is not a valid NFT. When transfer is complete, this function  checks if `_to` is a smart contract (code size > 0). If so, it calls  `onERC721Received` on `_to` and throws if the return value is not  `bytes4(keccak256(\"onERC721Received(address,address,uint256,bytes)\"))`.",
        "params": {
          "_from": "The current owner of the NFT",
          "_to": "The new owner",
          "_tokenId": "The NFT to transfer",
          "data": "Additional data with no specified format, sent in call to `_to`"
        }
      },
      "setApprovalForAll(address,bool)": {
        "details": "Emits the ApprovalForAll event. The contract MUST allow  multiple operators per owner.",
        "params": {
          "_approved": "True if the operator is approved, false to revoke approval",
          "_operator": "Address to add to the set of authorized operators."
        }
      },
      "setUser(uint256,address)": {
        "details": "Only the owner of token account can transfer a token and the state of token need to \"engagedWithOwner\",\"waitingForUser\" or \"engagedWithUser\".  The state of token must change to \"waitingForUser\" and change the parameter addressUser of token defined by _tokenID with _addressUser",
        "params": {
          "_addressUser": "The address of the new user.",
          "_tokenId": "the tokenID of Smart Device."
        }
      },
      "tokenFromBCA(address)": {
        "details": "Everybody can call this function, can be execute any code on blockchain only read.",
        "params": {
          "_addressSD": "the addres to obtain it's token ID"
        },
        "returns": {
          "_0": "The tokenID of the token generated binded to _addressSD."
        }
      },
      "transferFrom(address,address,uint256)": {
        "details": "Throws unless `msg.sender` is the current owner, an authorized  operator, or the approved address for this NFT. Throws if `_from` is  not the current owner. Throws if `_to` is the zero address. Throws if  `_tokenId` is not a valid NFT.",
        "params": {
          "_from": "The current owner of the NFT",
          "_to": "The new owner",
          "_tokenId": "The NFT to transfer"
        }
      },
      "userBalanceOf(address)": {
        "details": "Everybody can call this function, can be execute any code on blockchain only read.",
        "params": {
          "_addressUser": "the address to know the number of device can use."
        },
        "returns": {
          "_0": "the number of device can use."
        }
      },
      "userBalanceOfAnOwner(address,address)": {
        "details": "Everybody can call this function, can be execute any code on blockchain only read.",
        "params": {
          "_addressOwner": "the address the owner of this tokens.",
          "_addressUser": "the address to know the number of device of an owner can use."
        },
        "returns": {
          "_0": "the number of device of an owner can use."
        }
      },
      "userOf(uint256)": {
        "details": "Everybody can call this function, can be execute any code on blockchain only read.",
        "params": {
          "_tokenId": "of the token to obtain it's user."
        },
        "returns": {
          "_0": "The user of the token with _tokenId."
        }
      },
      "userOfFromBCA(address)": {
        "details": "Everybody can call this function, can be execute any code on blockchain only read.",
        "params": {
          "_addressSD": "the addres to obtain it's user."
        },
        "returns": {
          "_0": "The user of the token generated binded to _addressSD."
        }
      }
    },
    "version": 1
  },
  "userdoc": {
    "kind": "user",
    "methods": {
      "approve(address,uint256)": {
        "notice": "Set or reaffirm the approved address for an NFT"
      },
      "balanceOf(address)": {
        "notice": "Count all NFTs assigned to an owner"
      },
      "createToken(address,address)": {
        "notice": "This function define how the Smart Device is binded whith a new token"
      },
      "getApproved(uint256)": {
        "notice": "Get the approved address for a single NFT"
      },
      "isApprovedForAll(address,address)": {
        "notice": "Query if an address is an authorized operator for another address"
      },
      "ownerOf(uint256)": {
        "notice": "Find the owner of an NFT"
      },
      "ownerOfFromBCA(address)": {
        "notice": "This function let know  who is the owner of token by the address of Smart Device"
      },
      "safeTransferFrom(address,address,uint256)": {
        "notice": "Transfers the ownership of an NFT from one address to another address"
      },
      "safeTransferFrom(address,address,uint256,bytes)": {
        "notice": "Transfers the ownership of an NFT from one address to another address"
      },
      "setApprovalForAll(address,bool)": {
        "notice": "Enable or disable approval for a third party (\"operator\") to manage  all of `msg.sender`'s assets."
      },
      "setUser(uint256,address)": {
        "notice": "This function define the transference of use of a Smart Device"
      },
      "tokenFromBCA(address)": {
        "notice": "This function let obtain the tokenID from an address of Smart Device"
      },
      "transferFrom(address,address,uint256)": {
        "notice": "Transfer ownership of an NFT -- THE CALLER IS RESPONSIBLE  TO CONFIRM THAT `_to` IS CAPABLE OF RECEIVING NFTS OR ELSE  THEY MAY BE PERMANENTLY LOST"
      },
      "userBalanceOf(address)": {
        "notice": "This function let know many tokens have an user."
      },
      "userBalanceOfAnOwner(address,address)": {
        "notice": "This function let know many tokens of an owner have an user."
      },
      "userOf(uint256)": {
        "notice": "This function let know  who is the user of the token with its tokenID"
      },
      "userOfFromBCA(address)": {
        "notice": "This function let know  who is the user of token by the address of Smart Device"
      }
    },
    "version": 1
  }
}